{"abi":[{"type":"constructor","inputs":[],"stateMutability":"nonpayable"},{"type":"function","name":"changeLockAmount","inputs":[{"name":"_lockAmount","type":"uint256","internalType":"uint256"}],"outputs":[],"stateMutability":"nonpayable"},{"type":"function","name":"devs","inputs":[{"name":"","type":"address","internalType":"address"}],"outputs":[{"name":"isActive","type":"bool","internalType":"bool"},{"name":"lockedAmount","type":"uint256","internalType":"uint256"}],"stateMutability":"view"},{"type":"function","name":"gamers","inputs":[{"name":"","type":"address","internalType":"address"}],"outputs":[{"name":"ipfsHash","type":"string","internalType":"string"}],"stateMutability":"view"},{"type":"function","name":"lockAmount","inputs":[],"outputs":[{"name":"","type":"uint256","internalType":"uint256"}],"stateMutability":"view"},{"type":"function","name":"nativeToken","inputs":[],"outputs":[{"name":"","type":"address","internalType":"contract IERC20"}],"stateMutability":"view"},{"type":"function","name":"owner","inputs":[],"outputs":[{"name":"","type":"address","internalType":"address"}],"stateMutability":"view"},{"type":"function","name":"registerDev","inputs":[],"outputs":[],"stateMutability":"nonpayable"},{"type":"function","name":"renounceOwnership","inputs":[],"outputs":[],"stateMutability":"nonpayable"},{"type":"function","name":"roles","inputs":[{"name":"","type":"address","internalType":"address"}],"outputs":[{"name":"","type":"uint8","internalType":"enum INDIX.Role"}],"stateMutability":"view"},{"type":"function","name":"transferOwnership","inputs":[{"name":"newOwner","type":"address","internalType":"address"}],"outputs":[],"stateMutability":"nonpayable"},{"type":"event","name":"OwnershipTransferred","inputs":[{"name":"previousOwner","type":"address","indexed":true,"internalType":"address"},{"name":"newOwner","type":"address","indexed":true,"internalType":"address"}],"anonymous":false},{"type":"error","name":"OwnableInvalidOwner","inputs":[{"name":"owner","type":"address","internalType":"address"}]},{"type":"error","name":"OwnableUnauthorizedAccount","inputs":[{"name":"account","type":"address","internalType":"address"}]}],"bytecode":{"object":"0x608060405234801561000f575f5ffd5b50335f73ffffffffffffffffffffffffffffffffffffffff168173ffffffffffffffffffffffffffffffffffffffff1603610081575f6040517f1e4fbdf70000000000000000000000000000000000000000000000000000000081526004016100789190610196565b60405180910390fd5b6100908161009660201b60201c565b506101af565b5f5f5f9054906101000a900473ffffffffffffffffffffffffffffffffffffffff169050815f5f6101000a81548173ffffffffffffffffffffffffffffffffffffffff021916908373ffffffffffffffffffffffffffffffffffffffff1602179055508173ffffffffffffffffffffffffffffffffffffffff168173ffffffffffffffffffffffffffffffffffffffff167f8be0079c531659141344cd1fd0a4f28419497f9722a3daafe3b4186f6b6457e060405160405180910390a35050565b5f73ffffffffffffffffffffffffffffffffffffffff82169050919050565b5f61018082610157565b9050919050565b61019081610176565b82525050565b5f6020820190506101a95f830184610187565b92915050565b610c79806101bc5f395ff3fe608060405234801561000f575f5ffd5b506004361061009c575f3560e01c8063c187385011610064578063c187385014610132578063c8e249051461014e578063d8df5dc11461017f578063e1758bd81461019d578063f2fde38b146101bb5761009c565b8063141c56d0146100a05780631c32c5e8146100d0578063715018a6146100da5780638da5cb5b146100e45780639937464214610102575b5f5ffd5b6100ba60048036038101906100b59190610774565b6101d7565b6040516100c7919061080f565b60405180910390f35b6100d8610277565b005b6100e261042e565b005b6100ec610441565b6040516100f9919061083e565b60405180910390f35b61011c60048036038101906101179190610774565b610468565b60405161012991906108ca565b60405180910390f35b61014c60048036038101906101479190610916565b610485565b005b61016860048036038101906101639190610774565b6104ec565b60405161017692919061096a565b60405180910390f35b610187610518565b6040516101949190610991565b60405180910390f35b6101a561051e565b6040516101b29190610a05565b60405180910390f35b6101d560048036038101906101d09190610774565b610543565b005b6004602052805f5260405f205f91509050805f0180546101f690610a4b565b80601f016020809104026020016040519081016040528092919081815260200182805461022290610a4b565b801561026d5780601f106102445761010080835404028352916020019161026d565b820191905f5260205f20905b81548152906001019060200180831161025057829003601f168201915b5050505050905081565b60028081111561028a57610289610857565b5b60015f3373ffffffffffffffffffffffffffffffffffffffff1673ffffffffffffffffffffffffffffffffffffffff1681526020019081526020015f205f9054906101000a900460ff1660028111156102e6576102e5610857565b5b03610326576040517f08c379a000000000000000000000000000000000000000000000000000000000815260040161031d90610ac5565b60405180910390fd5b60025f9054906101000a900473ffffffffffffffffffffffffffffffffffffffff1673ffffffffffffffffffffffffffffffffffffffff166323b872dd33306003546040518463ffffffff1660e01b815260040161038693929190610ae3565b6020604051808303815f875af11580156103a2573d5f5f3e3d5ffd5b505050506040513d601f19601f820116820180604052508101906103c69190610b42565b50600260015f3373ffffffffffffffffffffffffffffffffffffffff1673ffffffffffffffffffffffffffffffffffffffff1681526020019081526020015f205f6101000a81548160ff0219169083600281111561042757610426610857565b5b0217905550565b6104366105c7565b61043f5f61064e565b565b5f5f5f9054906101000a900473ffffffffffffffffffffffffffffffffffffffff16905090565b6001602052805f5260405f205f915054906101000a900460ff1681565b61048d6105c7565b5f81116104cf576040517f08c379a00000000000000000000000000000000000000000000000000000000081526004016104c690610bb7565b60405180910390fd5b678ac7230489e80000816104e39190610c02565b60038190555050565b6005602052805f5260405f205f91509050805f015f9054906101000a900460ff16908060010154905082565b60035481565b60025f9054906101000a900473ffffffffffffffffffffffffffffffffffffffff1681565b61054b6105c7565b5f73ffffffffffffffffffffffffffffffffffffffff168173ffffffffffffffffffffffffffffffffffffffff16036105bb575f6040517f1e4fbdf70000000000000000000000000000000000000000000000000000000081526004016105b2919061083e565b60405180910390fd5b6105c48161064e565b50565b6105cf61070f565b73ffffffffffffffffffffffffffffffffffffffff166105ed610441565b73ffffffffffffffffffffffffffffffffffffffff161461064c5761061061070f565b6040517f118cdaa7000000000000000000000000000000000000000000000000000000008152600401610643919061083e565b60405180910390fd5b565b5f5f5f9054906101000a900473ffffffffffffffffffffffffffffffffffffffff169050815f5f6101000a81548173ffffffffffffffffffffffffffffffffffffffff021916908373ffffffffffffffffffffffffffffffffffffffff1602179055508173ffffffffffffffffffffffffffffffffffffffff168173ffffffffffffffffffffffffffffffffffffffff167f8be0079c531659141344cd1fd0a4f28419497f9722a3daafe3b4186f6b6457e060405160405180910390a35050565b5f33905090565b5f5ffd5b5f73ffffffffffffffffffffffffffffffffffffffff82169050919050565b5f6107438261071a565b9050919050565b61075381610739565b811461075d575f5ffd5b50565b5f8135905061076e8161074a565b92915050565b5f6020828403121561078957610788610716565b5b5f61079684828501610760565b91505092915050565b5f81519050919050565b5f82825260208201905092915050565b8281835e5f83830152505050565b5f601f19601f8301169050919050565b5f6107e18261079f565b6107eb81856107a9565b93506107fb8185602086016107b9565b610804816107c7565b840191505092915050565b5f6020820190508181035f83015261082781846107d7565b905092915050565b61083881610739565b82525050565b5f6020820190506108515f83018461082f565b92915050565b7f4e487b71000000000000000000000000000000000000000000000000000000005f52602160045260245ffd5b6003811061089557610894610857565b5b50565b5f8190506108a582610884565b919050565b5f6108b482610898565b9050919050565b6108c4816108aa565b82525050565b5f6020820190506108dd5f8301846108bb565b92915050565b5f819050919050565b6108f5816108e3565b81146108ff575f5ffd5b50565b5f81359050610910816108ec565b92915050565b5f6020828403121561092b5761092a610716565b5b5f61093884828501610902565b91505092915050565b5f8115159050919050565b61095581610941565b82525050565b610964816108e3565b82525050565b5f60408201905061097d5f83018561094c565b61098a602083018461095b565b9392505050565b5f6020820190506109a45f83018461095b565b92915050565b5f819050919050565b5f6109cd6109c86109c38461071a565b6109aa565b61071a565b9050919050565b5f6109de826109b3565b9050919050565b5f6109ef826109d4565b9050919050565b6109ff816109e5565b82525050565b5f602082019050610a185f8301846109f6565b92915050565b7f4e487b71000000000000000000000000000000000000000000000000000000005f52602260045260245ffd5b5f6002820490506001821680610a6257607f821691505b602082108103610a7557610a74610a1e565b5b50919050565b7f4164647265737320697320616c726561647920726573676973746572642100005f82015250565b5f610aaf601e836107a9565b9150610aba82610a7b565b602082019050919050565b5f6020820190508181035f830152610adc81610aa3565b9050919050565b5f606082019050610af65f83018661082f565b610b03602083018561082f565b610b10604083018461095b565b949350505050565b610b2181610941565b8114610b2b575f5ffd5b50565b5f81519050610b3c81610b18565b92915050565b5f60208284031215610b5757610b56610716565b5b5f610b6484828501610b2e565b91505092915050565b7f6c6f636b20616d6f756e742063616e6e6f74206265205a65726f2100000000005f82015250565b5f610ba1601b836107a9565b9150610bac82610b6d565b602082019050919050565b5f6020820190508181035f830152610bce81610b95565b9050919050565b7f4e487b71000000000000000000000000000000000000000000000000000000005f52601160045260245ffd5b5f610c0c826108e3565b9150610c17836108e3565b9250828202610c25816108e3565b91508282048414831517610c3c57610c3b610bd5565b5b509291505056fea2646970667358221220503dec88cf029c6169b0fb3dfdfb46c355d6695ea2750b72520271b63ef9809464736f6c634300081c0033","linkReferences":{}},"methodIdentifiers":{"changeLockAmount(uint256)":"c1873850","devs(address)":"c8e24905","gamers(address)":"141c56d0","lockAmount()":"d8df5dc1","nativeToken()":"e1758bd8","owner()":"8da5cb5b","registerDev()":"1c32c5e8","renounceOwnership()":"715018a6","roles(address)":"99374642","transferOwnership(address)":"f2fde38b"},"id":6}